{
  "contractName": "Template",
  "abi": [
    {
      "constant": true,
      "inputs": [],
      "name": "randomNumber",
      "outputs": [
        {
          "name": "",
          "type": "uint256"
        }
      ],
      "payable": false,
      "stateMutability": "view",
      "type": "function"
    },
    {
      "inputs": [],
      "payable": false,
      "stateMutability": "nonpayable",
      "type": "constructor"
    },
    {
      "anonymous": false,
      "inputs": [
        {
          "indexed": false,
          "name": "description",
          "type": "string"
        }
      ],
      "name": "LogOraclizeQuery",
      "type": "event"
    },
    {
      "anonymous": false,
      "inputs": [
        {
          "indexed": false,
          "name": "number",
          "type": "uint256"
        }
      ],
      "name": "LogResultReceived",
      "type": "event"
    },
    {
      "constant": false,
      "inputs": [],
      "name": "getRandomNumber",
      "outputs": [],
      "payable": true,
      "stateMutability": "payable",
      "type": "function"
    },
    {
      "constant": false,
      "inputs": [
        {
          "name": "myid",
          "type": "bytes32"
        },
        {
          "name": "result",
          "type": "string"
        }
      ],
      "name": "__callback",
      "outputs": [],
      "payable": false,
      "stateMutability": "nonpayable",
      "type": "function"
    },
    {
      "constant": false,
      "inputs": [
        {
          "name": "queryId",
          "type": "bytes32"
        },
        {
          "name": "result",
          "type": "string"
        },
        {
          "name": "proof",
          "type": "bytes"
        }
      ],
      "name": "__callback",
      "outputs": [],
      "payable": false,
      "stateMutability": "nonpayable",
      "type": "function"
    }
  ],
  "bytecode": "0x60806040523480156200001157600080fd5b506200007460017f01000000000000000000000000000000000000000000000000000000000000000260107f0100000000000000000000000000000000000000000000000000000000000000021762000098640100000000026401000000009004565b62000092633b9aca006200044c640100000000026401000000009004565b62000dec565b60008060009054906101000a900473ffffffffffffffffffffffffffffffffffffffff1673ffffffffffffffffffffffffffffffffffffffff1614806200011957506000620001176000809054906101000a900473ffffffffffffffffffffffffffffffffffffffff16620007bc640100000000026401000000009004565b145b156200013c576200013a6000620007c7640100000000026401000000009004565b505b6000809054906101000a900473ffffffffffffffffffffffffffffffffffffffff1673ffffffffffffffffffffffffffffffffffffffff166338cc48316040518163ffffffff167c0100000000000000000000000000000000000000000000000000000000028152600401602060405180830381600087803b158015620001c257600080fd5b505af1158015620001d7573d6000803e3d6000fd5b505050506040513d6020811015620001ee57600080fd5b810190808051906020019092919050505073ffffffffffffffffffffffffffffffffffffffff16600160009054906101000a900473ffffffffffffffffffffffffffffffffffffffff1673ffffffffffffffffffffffffffffffffffffffff161415156200035a576000809054906101000a900473ffffffffffffffffffffffffffffffffffffffff1673ffffffffffffffffffffffffffffffffffffffff166338cc48316040518163ffffffff167c0100000000000000000000000000000000000000000000000000000000028152600401602060405180830381600087803b158015620002dc57600080fd5b505af1158015620002f1573d6000803e3d6000fd5b505050506040513d60208110156200030857600080fd5b8101908080519060200190929190505050600160006101000a81548173ffffffffffffffffffffffffffffffffffffffff021916908373ffffffffffffffffffffffffffffffffffffffff1602179055505b600160009054906101000a900473ffffffffffffffffffffffffffffffffffffffff1673ffffffffffffffffffffffffffffffffffffffff1663688dcfd7826040518263ffffffff167c010000000000000000000000000000000000000000000000000000000002815260040180827effffffffffffffffffffffffffffffffffffffffffffffffffffffffffffff19167effffffffffffffffffffffffffffffffffffffffffffffffffffffffffffff19168152602001915050600060405180830381600087803b1580156200043057600080fd5b505af115801562000445573d6000803e3d6000fd5b5050505050565b60008060009054906101000a900473ffffffffffffffffffffffffffffffffffffffff1673ffffffffffffffffffffffffffffffffffffffff161480620004cd57506000620004cb6000809054906101000a900473ffffffffffffffffffffffffffffffffffffffff16620007bc640100000000026401000000009004565b145b15620004f057620004ee6000620007c7640100000000026401000000009004565b505b6000809054906101000a900473ffffffffffffffffffffffffffffffffffffffff1673ffffffffffffffffffffffffffffffffffffffff166338cc48316040518163ffffffff167c0100000000000000000000000000000000000000000000000000000000028152600401602060405180830381600087803b1580156200057657600080fd5b505af11580156200058b573d6000803e3d6000fd5b505050506040513d6020811015620005a257600080fd5b810190808051906020019092919050505073ffffffffffffffffffffffffffffffffffffffff16600160009054906101000a900473ffffffffffffffffffffffffffffffffffffffff1673ffffffffffffffffffffffffffffffffffffffff161415156200070e576000809054906101000a900473ffffffffffffffffffffffffffffffffffffffff1673ffffffffffffffffffffffffffffffffffffffff166338cc48316040518163ffffffff167c0100000000000000000000000000000000000000000000000000000000028152600401602060405180830381600087803b1580156200069057600080fd5b505af1158015620006a5573d6000803e3d6000fd5b505050506040513d6020811015620006bc57600080fd5b8101908080519060200190929190505050600160006101000a81548173ffffffffffffffffffffffffffffffffffffffff021916908373ffffffffffffffffffffffffffffffffffffffff1602179055505b600160009054906101000a900473ffffffffffffffffffffffffffffffffffffffff1673ffffffffffffffffffffffffffffffffffffffff1663ca6ad1e4826040518263ffffffff167c010000000000000000000000000000000000000000000000000000000002815260040180828152602001915050600060405180830381600087803b158015620007a057600080fd5b505af1158015620007b5573d6000803e3d6000fd5b5050505050565b6000813b9050919050565b600080620007f8731d3b2638a7cc9f2cb3d298a3da7a90b67e5506ed620007bc640100000000026401000000009004565b1115620008ac57731d3b2638a7cc9f2cb3d298a3da7a90b67e5506ed6000806101000a81548173ffffffffffffffffffffffffffffffffffffffff021916908373ffffffffffffffffffffffffffffffffffffffff160217905550620008a26040805190810160405280600b81526020017f6574685f6d61696e6e657400000000000000000000000000000000000000000081525062000d21640100000000026401000000009004565b6001905062000d1c565b6000620008dc73c03a2615d5efaf5f49f60b7bb6583eaec212fdf1620007bc640100000000026401000000009004565b1115620009905773c03a2615d5efaf5f49f60b7bb6583eaec212fdf16000806101000a81548173ffffffffffffffffffffffffffffffffffffffff021916908373ffffffffffffffffffffffffffffffffffffffff160217905550620009866040805190810160405280600c81526020017f6574685f726f707374656e33000000000000000000000000000000000000000081525062000d21640100000000026401000000009004565b6001905062000d1c565b6000620009c073b7a07bcf2ba2f2703b24c0691b5278999c59ac7e620007bc640100000000026401000000009004565b111562000a745773b7a07bcf2ba2f2703b24c0691b5278999c59ac7e6000806101000a81548173ffffffffffffffffffffffffffffffffffffffff021916908373ffffffffffffffffffffffffffffffffffffffff16021790555062000a6a6040805190810160405280600981526020017f6574685f6b6f76616e000000000000000000000000000000000000000000000081525062000d21640100000000026401000000009004565b6001905062000d1c565b600062000aa473146500cfd35b22e4a392fe0adc06de1a1368ed48620007bc640100000000026401000000009004565b111562000b585773146500cfd35b22e4a392fe0adc06de1a1368ed486000806101000a81548173ffffffffffffffffffffffffffffffffffffffff021916908373ffffffffffffffffffffffffffffffffffffffff16021790555062000b4e6040805190810160405280600b81526020017f6574685f72696e6b65627900000000000000000000000000000000000000000081525062000d21640100000000026401000000009004565b6001905062000d1c565b600062000b88736f485c8bf6fc43ea212e93bbf8ce046c7f1cb475620007bc640100000000026401000000009004565b111562000bed57736f485c8bf6fc43ea212e93bbf8ce046c7f1cb4756000806101000a81548173ffffffffffffffffffffffffffffffffffffffff021916908373ffffffffffffffffffffffffffffffffffffffff1602179055506001905062000d1c565b600062000c1d7320e12a1f859b3feae5fb2a0a32c18f5a65555bbf620007bc640100000000026401000000009004565b111562000c82577320e12a1f859b3feae5fb2a0a32c18f5a65555bbf6000806101000a81548173ffffffffffffffffffffffffffffffffffffffff021916908373ffffffffffffffffffffffffffffffffffffffff1602179055506001905062000d1c565b600062000cb27351efaf4c8b3c9afbd5ab9f4bbc82784ab6ef8faa620007bc640100000000026401000000009004565b111562000d17577351efaf4c8b3c9afbd5ab9f4bbc82784ab6ef8faa6000806101000a81548173ffffffffffffffffffffffffffffffffffffffff021916908373ffffffffffffffffffffffffffffffffffffffff1602179055506001905062000d1c565b600090505b919050565b806002908051906020019062000d3992919062000d3d565b5050565b828054600181600116156101000203166002900490600052602060002090601f016020900481019282601f1062000d8057805160ff191683800117855562000db1565b8280016001018555821562000db1579182015b8281111562000db057825182559160200191906001019062000d93565b5b50905062000dc0919062000dc4565b5090565b62000de991905b8082111562000de557600081600090555060010162000dcb565b5090565b90565b6117008062000dfc6000396000f300608060405260043610610062576000357c0100000000000000000000000000000000000000000000000000000000900463ffffffff16806327dc297e1461006757806338bbfa50146100de578063ccbac9f51461019b578063dbdff2c1146101c6575b600080fd5b34801561007357600080fd5b506100dc6004803603810190808035600019169060200190929190803590602001908201803590602001908080601f01602080910402602001604051908101604052809392919081815260200183838082843782019150505050505091929192905050506101d0565b005b3480156100ea57600080fd5b506101996004803603810190808035600019169060200190929190803590602001908201803590602001908080601f0160208091040260200160405190810160405280939291908181526020018383808284378201915050505050509192919290803590602001908201803590602001908080601f0160208091040260200160405190810160405280939291908181526020018383808284378201915050505050509192919290505050610213565b005b3480156101a757600080fd5b506101b0610309565b6040518082815260200191505060405180910390f35b6101ce61030f565b005b61020f828260006040519080825280601f01601f1916602001820160405280156102095781602001602082028038833980820191505090505b50610213565b5050565b61021b61044c565b73ffffffffffffffffffffffffffffffffffffffff163373ffffffffffffffffffffffffffffffffffffffff1614151561025457600080fd5b60066000846000191660001916815260200190815260200160002060009054906101000a900460ff16151561028857600080fd5b610291826107aa565b6005819055507ff701f221c51454b30553d1c1b24a54a02b40ae30f869bf9b9c0583d295ab2a176005546040518082815260200191505060405180910390a1600060066000856000191660001916815260200190815260200160002060006101000a81548160ff021916908315150217905550505050565b60055481565b6000659f295cd5f000341015151561032657600080fd5b6103856040805190810160405280600681526020017f6e657374656400000000000000000000000000000000000000000000000000008152506101406040519081016040528061011781526020016115be61011791396202ab986107be565b90507f0415a732c27dc65a8318b1f49677f1d76eb7365d60653ee494ed0897ef70abc86040518080602001828103825260358152602001807f4f7261636c697a65207175657279207761732073656e742c207374616e64696e81526020017f6720627920666f722074686520616e737765722e2e000000000000000000000081525060400191505060405180910390a1600160066000836000191660001916815260200190815260200160002060006101000a81548160ff02191690831515021790555050565b6000806000809054906101000a900473ffffffffffffffffffffffffffffffffffffffff1673ffffffffffffffffffffffffffffffffffffffff1614806104bc575060006104ba6000809054906101000a900473ffffffffffffffffffffffffffffffffffffffff16610d6e565b145b156104cd576104cb6000610d79565b505b6000809054906101000a900473ffffffffffffffffffffffffffffffffffffffff1673ffffffffffffffffffffffffffffffffffffffff166338cc48316040518163ffffffff167c0100000000000000000000000000000000000000000000000000000000028152600401602060405180830381600087803b15801561055257600080fd5b505af1158015610566573d6000803e3d6000fd5b505050506040513d602081101561057c57600080fd5b810190808051906020019092919050505073ffffffffffffffffffffffffffffffffffffffff16600160009054906101000a900473ffffffffffffffffffffffffffffffffffffffff1673ffffffffffffffffffffffffffffffffffffffff161415156106e4576000809054906101000a900473ffffffffffffffffffffffffffffffffffffffff1673ffffffffffffffffffffffffffffffffffffffff166338cc48316040518163ffffffff167c0100000000000000000000000000000000000000000000000000000000028152600401602060405180830381600087803b15801561066857600080fd5b505af115801561067c573d6000803e3d6000fd5b505050506040513d602081101561069257600080fd5b8101908080519060200190929190505050600160006101000a81548173ffffffffffffffffffffffffffffffffffffffff021916908373ffffffffffffffffffffffffffffffffffffffff1602179055505b600160009054906101000a900473ffffffffffffffffffffffffffffffffffffffff1673ffffffffffffffffffffffffffffffffffffffff1663c281d19e6040518163ffffffff167c0100000000000000000000000000000000000000000000000000000000028152600401602060405180830381600087803b15801561076a57600080fd5b505af115801561077e573d6000803e3d6000fd5b505050506040513d602081101561079457600080fd5b8101908080519060200190929190505050905090565b60006107b782600061120a565b9050919050565b60008060008060009054906101000a900473ffffffffffffffffffffffffffffffffffffffff1673ffffffffffffffffffffffffffffffffffffffff1614806108305750600061082e6000809054906101000a900473ffffffffffffffffffffffffffffffffffffffff16610d6e565b145b156108415761083f6000610d79565b505b6000809054906101000a900473ffffffffffffffffffffffffffffffffffffffff1673ffffffffffffffffffffffffffffffffffffffff166338cc48316040518163ffffffff167c0100000000000000000000000000000000000000000000000000000000028152600401602060405180830381600087803b1580156108c657600080fd5b505af11580156108da573d6000803e3d6000fd5b505050506040513d60208110156108f057600080fd5b810190808051906020019092919050505073ffffffffffffffffffffffffffffffffffffffff16600160009054906101000a900473ffffffffffffffffffffffffffffffffffffffff1673ffffffffffffffffffffffffffffffffffffffff16141515610a58576000809054906101000a900473ffffffffffffffffffffffffffffffffffffffff1673ffffffffffffffffffffffffffffffffffffffff166338cc48316040518163ffffffff167c0100000000000000000000000000000000000000000000000000000000028152600401602060405180830381600087803b1580156109dc57600080fd5b505af11580156109f0573d6000803e3d6000fd5b505050506040513d6020811015610a0657600080fd5b8101908080519060200190929190505050600160006101000a81548173ffffffffffffffffffffffffffffffffffffffff021916908373ffffffffffffffffffffffffffffffffffffffff1602179055505b600160009054906101000a900473ffffffffffffffffffffffffffffffffffffffff1673ffffffffffffffffffffffffffffffffffffffff16632ef3accc86856040518363ffffffff167c01000000000000000000000000000000000000000000000000000000000281526004018080602001838152602001828103825284818151815260200191508051906020019080838360005b83811015610b09578082015181840152602081019050610aee565b50505050905090810190601f168015610b365780820380516001836020036101000a031916815260200191505b509350505050602060405180830381600087803b158015610b5657600080fd5b505af1158015610b6a573d6000803e3d6000fd5b505050506040513d6020811015610b8057600080fd5b81019080805190602001909291905050509050823a02670de0b6b3a764000001811115610bb35760006001029150610d66565b600160009054906101000a900473ffffffffffffffffffffffffffffffffffffffff1673ffffffffffffffffffffffffffffffffffffffff1663c51be90f8260008888886040518663ffffffff167c0100000000000000000000000000000000000000000000000000000000028152600401808581526020018060200180602001848152602001838103835286818151815260200191508051906020019080838360005b83811015610c72578082015181840152602081019050610c57565b50505050905090810190601f168015610c9f5780820380516001836020036101000a031916815260200191505b50838103825285818151815260200191508051906020019080838360005b83811015610cd8578082015181840152602081019050610cbd565b50505050905090810190601f168015610d055780820380516001836020036101000a031916815260200191505b5096505050505050506020604051808303818588803b158015610d2757600080fd5b505af1158015610d3b573d6000803e3d6000fd5b50505050506040513d6020811015610d5257600080fd5b810190808051906020019092919050505091505b509392505050565b6000813b9050919050565b600080610d99731d3b2638a7cc9f2cb3d298a3da7a90b67e5506ed610d6e565b1115610e3a57731d3b2638a7cc9f2cb3d298a3da7a90b67e5506ed6000806101000a81548173ffffffffffffffffffffffffffffffffffffffff021916908373ffffffffffffffffffffffffffffffffffffffff160217905550610e316040805190810160405280600b81526020017f6574685f6d61696e6e65740000000000000000000000000000000000000000008152506114fe565b60019050611205565b6000610e5973c03a2615d5efaf5f49f60b7bb6583eaec212fdf1610d6e565b1115610efa5773c03a2615d5efaf5f49f60b7bb6583eaec212fdf16000806101000a81548173ffffffffffffffffffffffffffffffffffffffff021916908373ffffffffffffffffffffffffffffffffffffffff160217905550610ef16040805190810160405280600c81526020017f6574685f726f707374656e3300000000000000000000000000000000000000008152506114fe565b60019050611205565b6000610f1973b7a07bcf2ba2f2703b24c0691b5278999c59ac7e610d6e565b1115610fba5773b7a07bcf2ba2f2703b24c0691b5278999c59ac7e6000806101000a81548173ffffffffffffffffffffffffffffffffffffffff021916908373ffffffffffffffffffffffffffffffffffffffff160217905550610fb16040805190810160405280600981526020017f6574685f6b6f76616e00000000000000000000000000000000000000000000008152506114fe565b60019050611205565b6000610fd973146500cfd35b22e4a392fe0adc06de1a1368ed48610d6e565b111561107a5773146500cfd35b22e4a392fe0adc06de1a1368ed486000806101000a81548173ffffffffffffffffffffffffffffffffffffffff021916908373ffffffffffffffffffffffffffffffffffffffff1602179055506110716040805190810160405280600b81526020017f6574685f72696e6b6562790000000000000000000000000000000000000000008152506114fe565b60019050611205565b6000611099736f485c8bf6fc43ea212e93bbf8ce046c7f1cb475610d6e565b11156110fc57736f485c8bf6fc43ea212e93bbf8ce046c7f1cb4756000806101000a81548173ffffffffffffffffffffffffffffffffffffffff021916908373ffffffffffffffffffffffffffffffffffffffff16021790555060019050611205565b600061111b7320e12a1f859b3feae5fb2a0a32c18f5a65555bbf610d6e565b111561117e577320e12a1f859b3feae5fb2a0a32c18f5a65555bbf6000806101000a81548173ffffffffffffffffffffffffffffffffffffffff021916908373ffffffffffffffffffffffffffffffffffffffff16021790555060019050611205565b600061119d7351efaf4c8b3c9afbd5ab9f4bbc82784ab6ef8faa610d6e565b1115611200577351efaf4c8b3c9afbd5ab9f4bbc82784ab6ef8faa6000806101000a81548173ffffffffffffffffffffffffffffffffffffffff021916908373ffffffffffffffffffffffffffffffffffffffff16021790555060019050611205565b600090505b919050565b6000606060008060008693506000925060009150600090505b83518110156114df5760307f010000000000000000000000000000000000000000000000000000000000000002848281518110151561125e57fe5b9060200101517f010000000000000000000000000000000000000000000000000000000000000090047f0100000000000000000000000000000000000000000000000000000000000000027effffffffffffffffffffffffffffffffffffffffffffffffffffffffffffff191610158015611376575060397f010000000000000000000000000000000000000000000000000000000000000002848281518110151561130657fe5b9060200101517f010000000000000000000000000000000000000000000000000000000000000090047f0100000000000000000000000000000000000000000000000000000000000000027effffffffffffffffffffffffffffffffffffffffffffffffffffffffffffff191611155b1561142757811561139957600086141561138f576114df565b8580600190039650505b600a83029250603084828151811015156113af57fe5b9060200101517f010000000000000000000000000000000000000000000000000000000000000090047f0100000000000000000000000000000000000000000000000000000000000000027f0100000000000000000000000000000000000000000000000000000000000000900403830192506114d2565b602e7f010000000000000000000000000000000000000000000000000000000000000002848281518110151561145957fe5b9060200101517f010000000000000000000000000000000000000000000000000000000000000090047f0100000000000000000000000000000000000000000000000000000000000000027effffffffffffffffffffffffffffffffffffffffffffffffffffffffffffff191614156114d157600191505b5b8080600101915050611223565b60008611156114f15785600a0a830292505b8294505050505092915050565b8060029080519060200190611514929190611518565b5050565b828054600181600116156101000203166002900490600052602060002090601f016020900481019282601f1061155957805160ff1916838001178555611587565b82800160010185558215611587579182015b8281111561158657825182559160200191906001019061156b565b5b5090506115949190611598565b5090565b6115ba91905b808211156115b657600081600090555060010161159e565b5090565b9056005b55524c5d205b276a736f6e2868747470733a2f2f6170692e72616e646f6d2e6f72672f6a736f6e2d7270632f312f696e766f6b65292e726573756c742e72616e646f6d2e646174612e30272c20275c6e7b226a736f6e727063223a2022322e30222c20226d6574686f64223a202267656e65726174655369676e6564496e746567657273222c2022706172616d73223a207b20226170694b6579223a202230303030303030302d303030302d303030302d303030302d303030303030303030303030222c20226e223a20312c20226d696e223a20312c20226d6178223a20313030302c20227265706c6163656d656e74223a20747275652c202262617365223a203130207d2c20226964223a203134323135207d275da165627a7a723058207961ce88329cefffafb9777cd4134fd3d19b19e4da08c4abca69f339f6df3f310029",
  "source": "pragma solidity ^0.4.20;\n\nimport \"./oraclizeAPI_0.4.sol\";\n\ncontract Template is usingOraclize {\n    // Define variables\n    uint public randomNumber; // number obtained from random.org\n    mapping(bytes32 => bool) validIds; // used for validating Query IDs\n    uint constant gasLimitForOraclize = 175000; // gas limit for Oraclize callback\n    \n    // Events used to track contract actions\n    event LogOraclizeQuery(string description);\n    event LogResultReceived(uint number);\n    \n    // Constructor\n    function Template() public {\n        // set Oraclize proof type\n        oraclize_setProof(proofType_TLSNotary | proofStorage_IPFS);\n\n        // set gas price for Oraclize callback\n        oraclize_setCustomGasPrice(1000000000 wei); // 1 Gwei\n    }\n           \n    // Query Oraclize to get random number\n    function getRandomNumber() public payable {\n        // require ETH to cover callback gas costs\n        require(msg.value >= 0.000175 ether); // 175,000 gas * 1 Gwei = 0.000175 ETH\n\n        // send query\n        bytes32 queryId = oraclize_query( \n          \"nested\", \n          \"[URL] ['json(https://api.random.org/json-rpc/1/invoke).result.random.data.0', '\\\\n{\\\"jsonrpc\\\": \\\"2.0\\\", \\\"method\\\": \\\"generateSignedIntegers\\\", \\\"params\\\": { \\\"apiKey\\\": \\\"00000000-0000-0000-0000-000000000000\\\", \\\"n\\\": 1, \\\"min\\\": 1, \\\"max\\\": 1000, \\\"replacement\\\": true, \\\"base\\\": 10 }, \\\"id\\\": 14215 }']\",\n          gasLimitForOraclize\n        );        \n                       \n        // log that query was sent\n        LogOraclizeQuery(\"Oraclize query was sent, standing by for the answer..\");\n      \n        // add query ID to mapping\n        validIds[queryId] = true;\n    }\n    \n    // Callback function for Oraclize once it retreives the data \n    function __callback(bytes32 queryId, string result, bytes proof) public {\n        // only allow Oraclize to call this function\n        require(msg.sender == oraclize_cbAddress());\n      \n        // validate the ID \n        require(validIds[queryId]);\n        \n        // set random number, result is of the form: [268]\n        // if we also returned serialNumber, form would be \"[3008768, [268]]\"\n        randomNumber = parseInt(result); \n      \n        // log the new number that was obtained\n        LogResultReceived(randomNumber); \n      \n        // reset mapping of this ID to false\n        // this ensures the callback for a given queryID never called twice\n        validIds[queryId] = false;\n    }\n    \n}\n\n",
  "sourcePath": "/Users/ying/workspace/CyberMiles/oraclize/contracts/Template.sol",
  "compiler": {
    "name": "solc",
    "version": "0.4.25+commit.59dbf8f1.Emscripten.clang"
  },
  "schemaVersion": "2.0.2",
  "updatedAt": "2019-01-31T03:13:39.848Z"
}